:100000000A128A11C72F0034013402340334043435
:1000100005340634073408340934303430343A3483
:10002000303430343A343034303400340D340E341B
:100030000F34103409340A340B34F100FF287008EF
:10004000031D26288316031306102928831603137D
:10005000061483120313061008007008031D3428C9
:10006000831603138610372883160313861483120E
:100070000313861008007008031D4228831603131B
:100080000611452883160313061583120313061160
:1000900008007008031D5028831603138611532887
:1000A0008316031386158312031386110800700844
:1000B000031D5E288316031306126128831603139B
:1000C000061683120313061208007008031D6C281D
:1000D0008316031386126F28831603138616831262
:1000E0000313861208007008031D7A288316031371
:1000F00006137D28831603130617831203130613B2
:1001000008007008031D88288316031386138B28A4
:1001100083160313861783120313861308007008CF
:10012000031D9628831603130810992883160313BA
:10013000081483120313081008007008031DA42874
:10014000831603138810A7288316031388148312B9
:100150000313881008007008031DB22883160313C8
:100160000811B52883160313081583120313081109
:1001700008007008031DC028831603138811C328C4
:10018000831603138815831203138811080070085F
:10019000031DCE28831603130812D12883160313D8
:1001A000081683120313081208007008031DDC28C8
:1001B000831603138812DF2883160313881683120D
:1001C0000313881208007008031DEA28831603131E
:1001D0000813ED288316031308178312031308135B
:1001E00008007008031DF828831603138813FB28E2
:1001F00083160313881783120313881308007108EA
:10020000013A03191F28033A03192D28013A03194B
:100210003B28073A03194928013A03195728033A9A
:1002200003196528013A031973280F3A0319812825
:10023000013A03198F28033A03199D28013A03193B
:10024000AB28073A0319B928013A0319C728033A1A
:100250000319D528013A0319E3281F3A0319F12895
:100260003129080083120313C80041080A168A11B5
:10027000A2250A128A1183120313C2004208C90080
:100280004808C2004208CB00CA013030C2004B0807
:1002900084004208831380003030C2004B0A84007F
:1002A000420880003030C2004B08033E8400420800
:1002B00080003030C2004B08043E840042088000B9
:1002C0003030C2004B08063E8400420880003030C7
:1002D000C2004B08073E8400420880001230AE0086
:1002E0009030AF000330C2004208B0002030C3009D
:1002F0004308B100B201B20A0330C4004408B3009D
:10030000CA30B4009130B500B6010A168A11F02641
:100310000A128A118312031349080A168A155E25E8
:100320000A128A1183120313C2004208C600490848
:100330000A168A153D250A128A1183120313C20078
:100340004208C7001230A0009030A1000330C20064
:100350004208A2002030C3004308A3004608C4009E
:100360004408A4000A168A110A260A128A111230B9
:1003700083120313A0009030A1000330C200420892
:10038000A2002030C3004308A3004708C40044086B
:10039000A4000A168A110A260A128A111230831240
:1003A0000313AE009030AF000330C2004208B0002B
:1003B0002030C3004308B1000330C4004408B20039
:1003C000B301B30AD830B4009130B500B6010A16B3
:1003D0008A11F0260A128A11831203134B080A129B
:1003E0008A15E2210A128A1183120313C2004208FD
:1003F000CA004A080319072A672A0A128A15E9243B
:100400000A128A1183120313C2004208C5002A305F
:100410004506031DFD29831603136D08831203137C
:10042000C2004208A4004B080A168A1171270A125A
:100430008A11003A0319492A123083120313AE00BD
:100440009030AF000330C2004208B0002030C3003B
:100450004308B1000530C4004408B200B301B30A38
:100460009530B4009130B500B6010A168A11F02615
:100470000A128A11333083120313C400BC30C30044
:100480001030C200C20B422AC30B422AC40B422ABC
:10049000652A123083120313AE009030AF00033090
:1004A000C2004208B0002030C3004308B10005304C
:1004B000C4004408B200B301B30A6530B4009130FF
:1004C000B500B6010A168A11F026233008008312FF
:1004D00003134A03031D0800831603136D088312D8
:1004E0000313C2004208A4004B080A168A117127A0
:1004F0000A128A11003A0319AA2A1230831203132E
:10050000AE009030AF000330C2004208B00020308F
:10051000C3004308B1000530C4004408B200B30171
:10052000B30A9530B4009130B500B6010A168A11AD
:10053000F0260A128A11333083120313C400BC3030
:10054000C3001030C200C20BA32AC30BA32AC40BE2
:10055000A32AD72A123083120313AE009030AF00C3
:100560000330C2004208B0002030C3004308B1008D
:100570000530C4004408B200B301B30A6530B400CA
:100580009130B500B6010A168A11F0260A128A11B6
:100590001A3083120313C4005E30C3008630C200D9
:1005A000C20BD02AC30BD02AC40BD02A00002330A0
:1005B0000800F00106300A128A111D200A128A1161
:1005C000F00106300A128A15B9220A128A1183161E
:1005D0000313CB01CC01CD01073083120313CC00F0
:1005E0004C08FA000C30CD004D08FB0008300A160C
:1005F0008A112A240A128A11003083120313A300DD
:100600000030A2002530A1008030A0000A168A1117
:100610003B250A128A11023083120313CC004C08C6
:10062000F9000330CD004D08FA000430CE004E082A
:10063000FB000530CF004F08FC0001300A168A1578
:10064000D7250A128A11C0308400DB3083120313CD
:10065000CC000408CD000930CE004C088400831380
:100660000008CF00CC0A4D0884004F088000CD0A56
:10067000CE0B2D2BAC3084006630CC000408CD00AE
:100680000930CE004C08840083130008CF00CC0A48
:100690004D0884004F088000CD0ACE0B422B0A166D
:1006A0008A110D220A128A11A03084009030831220
:1006B0000313CC000408CD000C30CE004C0884009D
:1006C00083170008CF00CC0A4D08840083134F081D
:1006D0008000CD0ACE0B5E2B831603136708B8008B
:1006E0006608B7006508B6006408B5006808B90078
:1006F0006908BA006A08BB00B53083120313CC0046
:100700004C08F200B930CD004D08F3000430CE00A3
:100710004E08F4000330CF004F08F500A030D000A1
:100720005008F6000630D1005108F70002300A12D6
:100730008A1513210A128A11123083120313AE0094
:100740009030AF000330CC004C08B0002030CD001A
:100750004D08B100B201B20A0230CE004E08B3001B
:10076000B530B4009130B500B6010A168A11F026F2
:100770000A128A11123083120313AE009030AF00B8
:100780000330CC004C08B0002030CD004D08B10043
:100790000230CE004E08B2000430CF004F08B30044
:1007A000DE30B4009130B500B6010A168A11F02689
:1007B0000A128A11123083120313AE009030AF0078
:1007C0000330CC004C08B0002030CD004D08B10003
:1007D0000330CE004E08B2000330CF004F08B30004
:1007E000D130B4009130B500B6010A168A11F02656
:1007F0000A128A1183160313CE01CF01CB30831264
:100800000313CC004C08FA00CC30CD004D08FB009F
:10081000CD300A168A1570260A128A118316031320
:100820004D080A168A155E250A128A1183120313CF
:10083000CC004C0883160313C0004D080A168A1515
:100840003D250A128A1183120313CC004C0883162B
:100850000313C1004B080A168A155E250A128A1175
:1008600083120313CC004C0883160313C3004B08F8
:100870000A168A153D250A128A1183120313CC0029
:100880004C0883160313C4004C080A168A155E250B
:100890000A128A1183120313CC004C088316031327
:1008A000C6004C080A168A153D250A128A118312C1
:1008B0000313CC004C0883160313C70012308312B5
:1008C0000313AE009030AF000330CC004C08B000F2
:1008D0002030CD004D08B1000530CE004E08B200EA
:1008E0000230CF004F08B300D830B4009130B500CB
:1008F000B6010A168A11F0260A128A1112308312E2
:100900000313AE009030AF000330CC004C08B000B1
:100910002030CD004D08B1000530CE004E08B200A9
:100920000630CF004F08B300C030B4000030B5002F
:10093000B6010A168A11F0260A128A1183160313C9
:100940006D080319362D6D0883120313CC00CD01F9
:100950004C0883160313EB00831203134D08831610
:100960000313EC00831603136B086C040319362D74
:100970000230EB020030031CEC03EC02AC300A1630
:100980008A1172260A128A11AC30F3000030F4008A
:100990000A168A150E270A128A11E830F3009130E0
:1009A000F4000A168A150E270A128A11AC30831237
:1009B0000313CC004C08F0000530F1000030F200C9
:1009C000C0300A168A15E5260A128A11013A031D5B
:1009D000102D123083120313AE009030AF0003309D
:1009E000CC004C08B0002030CD004D08B1000630DE
:1009F000CE004E08B200B301B30AA530B400913066
:100A0000B500B6010A168A11F0260A128A11F00101
:100A1000F00A06300A128A15B9220A128A11B22C7B
:100A2000F00106300A128A15B9220A128A11123010
:100A300083120313AE009030AF000330CC004C089B
:100A4000B0002030CD004D08B1000630CE004E0879
:100A5000B200B301B30A5530B4009130B500B6010D
:100A60000A168A11F0260A128A11B22C0A128A1565
:100A7000E9240A128A1183120313CC004C0883164E
:100A80000313D0002A305006031D502FED010A1623
:100A90008A15F4250A128A11123083120313AE004C
:100AA0009030AF000330CC004C08B0002030CD00B7
:100AB0004D08B100B201B20AB301B30A4430B40028
:100AC0009130B500B6010A168A11F0260A128A1171
:100AD000123083120313AE009030AF000330CC000D
:100AE0004C08B0002030CD004D08B1000230CE00DF
:100AF0004E08B200B301B30A3230B4009130B500F1
:100B0000B6010A168A11F0260A128A110A128A15EB
:100B1000E9240A128A1183120313CC004C088316AD
:100B20000313D000233050060319502FCA01FA2DA9
:100B3000A03083120313CC000030CD0083160313C2
:100B40004A08831203134C07CE000030031801300B
:100B50004D07CF004E08840083134F188317831668
:100B6000031350088000013083120313CC004C089B
:100B700083160313CA07DF2D5008003A0319DF2D2F
:100B8000303A0319982D013A0319982D033A0319A5
:100B9000982D013A0319982D073A0319982D013A17
:100BA0000319982D033A0319982D013A0319982D2A
:100BB0000F3A0319982D013A0319982DDF2D0A12C7
:100BC0008A15E9240A128A1183120313CC004C08F7
:100BD00083160313D000BE0123305006031DFA2DE7
:100BE000BE01BE0A2A3083120313CC004C088316C0
:100BF0000313D0002A305006031DBC2D3E08031DF0
:100C00004E2FA03083120313CC000030CD0083168A
:100C100003134A08831203134C07CE000030031855
:100C200001304D07CF004E08840083174F1C8313FB
:100C300080011230AE009030AF000330CC004C0881
:100C4000B0002030CD004D08B1000330CE004E087A
:100C5000B2000330CF004F08B300E430B40091304D
:100C6000B500B6010A168A11F0260A128A1112304E
:100C700083120313AE009030AF000330CC004C0859
:100C8000B0002030CD004D08B1000330CE004E083A
:100C9000B2000730CF004F08B300A030B4000030DE
:100CA000B500B6010A168A11F0260A128A11A03080
:100CB00083160313BC000030BD00BF014A083F0289
:100CC0000318922E3C08840083173D1C83130008F0
:100CD000D03ED13E84004F08F1004E08F0000A30AB
:100CE000F2000030F3000A168A154F260A128A1104
:100CF00083130008700783160313CE000030031817
:100D000001307107CF000130BC070318BD0A003065
:100D1000BD07013083120313CC004C088316031364
:100D2000BF075E2E4E084F04031DD12E12308312D2
:100D30000313AE009030AF000330CC004C08B0007D
:100D40002030CD004D08B1000430CE004E08B20076
:100D50000230CF004F08B300C030B4009130B5006E
:100D6000B6010A168A11F0260A128A11233083125C
:100D70000313CC004C0883160313D0001A308312DF
:100D80000313CE005E30CD008630CC00CC0BC62ED7
:100D9000CD0BC62ECE0BC62E000083160313CE013C
:100DA000CF0100304F02103003194E02031C102FE8
:100DB000123083120313AE009030AF000330CC002A
:100DC0004C08B0002030CD004D08B1000430CE00FA
:100DD0004E08B200B301B30A8530B4009130B500BB
:100DE000B6010A168A11F0260A128A1123308312DC
:100DF0000313CC004C0883160313D0003330831246
:100E00000313CE00BC30CD001030CC00CC0B062F2D
:100E1000CD0B062FCE0B062F83160313CE01CF0169
:100E20000A168A15F4250A128A1183160313ED0196
:100E3000C901C90A490883120313CC00CD014D082A
:100E4000831603134F02031D2B2F831203134C0829
:100E5000831603134E02031C922D490883120313B9
:100E6000CC004C08C100C0300A128A1132210A128B
:100E70008A1183120313CD004D0883160313D0008B
:100E80000A168A15F4250A128A11013083120313F7
:100E9000CC004C0883160313C9071A2F23308B2D5F
:100EA00030305006031D9C2BC0300A128A159E2339
:100EB0000A128A11003A0319922F12308312031377
:100EC000AE009030AF000330CC004C08B0002030B2
:100ED000CD004D08B1000530CE004E08B200033001
:100EE000CF004F08B3009530B4009130B500B60183
:100EF0000A168A11F0260A128A111A308312031375
:100F0000CE005E30CD008630CC00CC0B852FCD0BD3
:100F1000852FCE0B852F00000A168A110D220A128A
:100F20008A119C2B123083120313AE009030AF0055
:100F30000330CC004C08B0002030CD004D08B1008B
:100F40000530CE004E08B2000330CF004F08B3008A
:100F50007530B4009130B500B6010A168A11F0263A
:100F60000A128A111A3083120313CE005E30CD00AC
:100F70008630CC00CC0BBA2FCD0BBA2FCE0BBA2FAC
:100F800000000A168A110D220A128A119C2B831363
:100F90005230840066300A168A1542250A128A11D8
:100FA00083160313EB01EC01ED0183179C30FD0068
:100FB0001D30FE006A30FF00903084000A168A154A
:100FC0008B250A128A118313EB30FD000030FE00DE
:100FD0000330FF00D13084000A168A158B250A12CF
:100FE0008A116F30FD001D30FE004A30FF00663070
:100FF00084000A168A158B2583010A128A11D92AC0
:101000000030FC000030FB000030FA000030F90036
:10101000730872047104700403195528FD01FD0A58
:10102000F31B20280130F8000310F00DF10DF20D34
:10103000F30DF80B14280130F8007808FD0710288C
:101040000130F8000310F90DFA0DFB0DFC0DF80B43
:10105000222873087702031D372872087602031DC1
:10106000372871087502031D372870087402031CA5
:1010700048287008F4027108031C710FF502720809
:10108000031C720FF6027308031C730FF702791426
:1010900001300310F30CF20CF10CF00CFF3E031DB9
:1010A00049280130FD02031D20287C08F3007B083D
:1010B000F2007A08F1007908F0000800F000E0285A
:1010C00083120313061C6628013008000030080054
:1010D00083120313861C6E280130080000300800BC
:1010E00083120313061D7628013008000030080023
:1010F00083120313861D7E2801300800003008008B
:1011000083120313061E86280130080000300800F1
:1011100083120313861E8E28013008000030080059
:1011200083120313061F96280130080000300800C0
:1011300083120313861F9E28013008000030080028
:1011400083120313081CA628013008000030080091
:1011500083120313881CAE280130080000300800F9
:1011600083120313081DB628013008000030080060
:1011700083120313881DBE280130080000300800C8
:1011800083120313081EC62801300800003008002F
:1011900083120313881ECE28013008000030080097
:1011A00083120313081FD6280130080000300800FE
:1011B00083120313881FDE28013008000030080066
:1011C0007008013A03196028033A03196828013AA4
:1011D00003197028073A03197828013A031980285F
:1011E000033A03198828013A031990280F3A031982
:1011F0009828013A0319A028033A0319A828013AAC
:101200000319B028073A0319B828013A0319C0286E
:10121000033A0319C828013A0319D0281F3A0319C1
:10122000D82812290800FB007B08F80078088312F0
:101230000313D7007408F8007808DA007508F8007E
:101240007808D6007208F8007808D9007308F8000A
:101250007808D5007608F8007808D8007708F800F4
:101260007808D400FC0174087C0203184B297C0820
:101270007207F8007808840083130008F9007C08DE
:101280005907FA007A088400790880000130F800D4
:101290007808FC073329FC0175087C0203186429CF
:1012A0007C087307F8007808840083130008F900AD
:1012B0007C085507FA007A0884007908800001301C
:1012C000F8007808FC074C295708031D5703031D35
:1012D0009C29FC0174087C0203188229F0017C0817
:1012E000831203135907F800780884008313000859
:1012F0000A128A111D200A128A150130F800780896
:10130000FC076A29FC0175087C0203189C29F0017E
:10131000F00A7C08831203135507F800780884004C
:10132000831300080A128A111D200A128A1501303F
:10133000F8007808FC07832902308312031357064C
:101340000319A62903305706031DD929FC01740887
:101350007C020318C029F001F00A7C0883120313F1
:101360005907F80078088400831300080A128A11CC
:101370001D200A128A150130F8007808FC07A729F9
:10138000FC0175087C020318D929F0017C0883123E
:1013900003135507F80078088400831300080A1225
:1013A0008A111D200A128A150130F8007808FC07FE
:1013B000C129770803190800F00177080A128A1179
:1013C0001D20080083120313BF00C0014A2A1230F7
:1013D000AE009030AF000330BA003A08B0002030C1
:1013E000BB003B08B1000330BC003C08B200053034
:1013F000BD003D08B3003F08B4000030B500B601A1
:101400000A168A11F0260A128A150A128A15E92488
:101410000A128A1583120313BA003A08DB00862ADF
:10142000023040060319182A05304006031DB12A70
:101430003A30BA003A08DB005B08BA0040083F07C0
:10144000BB003B0884003A08831380000130BA00D7
:101450003A08C0071230AE009030AF000330BA0037
:101460003A08B0002030BB003B08B1000330BC009C
:101470003C08B2000530BD003D08B3003F08B40091
:101480000030B500B6010A168A11F0260A128A1534
:1014900083120313BE01B12A0830BA003A08C00013
:1014A000BE01BE0AB12A0130C00202304006031953
:1014B000672A053040060319672A3030BA00400811
:1014C0003F07BB003B0884003A08831380001230BA
:1014D000AE009030AF000330BA003A08B0002030C0
:1014E000BB003B08B1000330BC003C08B200053033
:1014F000BD003D08B3003F08B4000030B500B601A0
:101500000A168A11F0260A128A15B12A83120313C9
:101510005B08003A0319102A233A0319532A093A9F
:1015200003194C2A1A3A03191C2A013A03191C2AD6
:10153000033A03191C2A013A03191C2A073A031912
:101540001C2A013A03191C2A033A03191C2A013ADE
:1015500003191C2A0F3A03191C2A013A03191C2AE1
:10156000B12A0830831203134002031CE7293E0806
:101570000800F1006B2B70080319C22A83120313B1
:1015800006140800831203130610080070080319DC
:10159000CD2A8312031386140800831203138610C6
:1015A000080070080319D82A8312031306150800CF
:1015B000831203130611080070080319E32A83122B
:1015C00003138615080083120313861108007008A0
:1015D0000319EE2A8312031306160800831203135D
:1015E0000612080070080319F92A831203138616DD
:1015F0000800831203138612080070080319042BD5
:10160000831203130617080083120313061308003E
:10161000700803190F2B8312031386170800831217
:10162000031386130800700803191A2B831203137F
:101630000814080083120313081008007008031927
:10164000252B8312031388140800831203138810B8
:10165000080070080319302B8312031308150800C3
:101660008312031308110800700803193B2B83121F
:1016700003138815080083120313881108007008EB
:101680000319462B83120313081608008312031351
:101690000812080070080319512B831203138816CF
:1016A00008008312031388120800700803195C2BCA
:1016B000831203130817080083120313081308008A
:1016C00070080319672B831203138817080083120D
:1016D0000313881308007108013A0319BB2A033A5F
:1016E0000319C62A013A0319D12A073A0319DC2A39
:1016F000013A0319E72A033A0319F22A013A0319B6
:10170000FD2A0F3A0319082B013A0319132B033A48
:1017100003191E2B013A0319292B073A0319342BFD
:10172000013A03193F2B033A03194A2B013A0319D3
:10173000552B1F3A0319602B9D2B080083120313AE
:10174000CB003030C1004B08840041088313800077
:101750003030C1004B0A8400410880003030C100A5
:101760004B08033E8400410880003030C1004B0824
:10177000043E8400410880003030C1004B08063E22
:101780008400410880003030C1004B08073E8400CF
:1017900041088000C901CA010A168A110D220A12E5
:1017A0008A15123083120313AE009030AF0003305D
:1017B000C1004108B0002030C2004208B10003302F
:1017C000C3004308B2000530C4004408B3004B080E
:1017D000B4000030B500B6010A168A11F0260A12CC
:1017E0008A15831203134B080A128A15E2210A1282
:1017F0008A1583120313C1004108C6004608031965
:101800000C2C7A2C0A128A15E9240A128A158312E2
:101810000313C1004108C5002A304506031D022CF0
:10182000C701053047020318652C02304702031830
:10183000352C4B08840083130008D03ED13E840031
:101840000A30C1004108F00049080A168A157625B9
:101850000A128A158313000783120313C200420879
:10186000C9000130C1004108CB0702304706031D03
:101870003D2C0130C1004108CB0703304702031C57
:101880005D2C4B08840083130008D03ED13E8400B9
:101890000A30C1004108F0004A080A168A15762568
:1018A0000A128A158313000783120313C200420829
:1018B000CA000130C1004108CB070130C100410816
:1018C000C70705304702031C152C193049020318BD
:1018D0006D2C3D304A02031C6F2C003008004A0872
:1018E000C1004108FC00FD0149080A168A110A23BB
:1018F0000A128A15831203134603031D0800C80148
:10190000053048020318D42C023048020318A42CD6
:101910004B08840083130008D03ED13E84000A3077
:10192000C1004108F00049080A168A1576250A12F6
:101930008A158313000783120313C2004208C900EB
:101940000130C1004108CB0702304806031DAC2C12
:101950000130C1004108CB0703304802031CCC2CE6
:101960004B08840083130008D03ED13E84000A3027
:10197000C1004108F0004A080A168A1576250A12A5
:101980008A158313000783120313C2004208CA009A
:101990000130C1004108CB070130C1004108C80730
:1019A00005304802031C842C193049020318DC2C32
:1019B0003D304A02031CDE2C003008004A08C100FA
:1019C0004108FC00FD0149080A168A110A2301306A
:1019D0000800F901F801831203135708031DB02D05
:1019E000FA015A087A020318962D7A08F40074084E
:1019F000F900FC01831203135A087C020318222DFC
:101A0000F001F00A7C085907F4007408840083137D
:101A100000080A128A15B9220A128A15F0017908FB
:101A2000831203135907F400740884008313000819
:101A30000A128A15B9220A128A150130F4007408B4
:101A4000FC07FA2CFB018312031356087B020318D0
:101A5000912D7B085507F400740884008313000857
:101A60000A128A155E200A128A15003A031D832D78
:101A700083120313540803195C2DF001F00A540873
:101A80000A128A15B9220A128A150830F6009D300A
:101A9000F5000B30F400F40B4B2DF50B4B2DF60B32
:101AA0004B2D522DF0018312031354080A128A158C
:101AB000B9220A128A15692D0830F6009D30F5000A
:101AC0000B30F400F40B622DF50B622DF60B622D3A
:101AD000692DF801F80A831203135608F4007408FC
:101AE000F0007A080A168A1576250A128A157B07ED
:101AF000831203135807F500750884008313000848
:101B0000F6007608F7002130F5007630F400F40B8B
:101B1000872DF50B872D00000130F4007408FB07BA
:101B2000232D0130F4007408FA07F12CFC01831214
:101B300003135A087C020318B02DF001F00A7C0848
:101B40005907F40074088400831300080A128A15E8
:101B5000B9220A128A150130F4007408FC07972D87
:101B60005703031D722EFA015A087A020318592EE0
:101B70007A08F4007408F900FC01831203135A0870
:101B80007C020318E52DF0017C085907F400740865
:101B90008400831300080A128A15B9220A128A15D2
:101BA000F001F00A7908831203135907F40074084E
:101BB0008400831300080A128A15B9220A128A15B2
:101BC0000130F4007408FC07BD2DFB0183120313E0
:101BD00056087B020318542E7B085507F40074083E
:101BE0008400831300080A128A155E200A128A15DF
:101BF000013A031D462E83120313540803191F2EA6
:101C0000F001F00A54080A128A15B9220A128A153C
:101C10000830F6009D30F5000B30F400F40B0E2E6A
:101C2000F50B0E2EF60B0E2E152EF001831203135C
:101C300054080A128A15B9220A128A152C2E083065
:101C4000F6009D30F5000B30F400F40B252EF50B5B
:101C5000252EF60B252E2C2EF801F80A83120313DD
:101C60005608F4007408F0007A080A168A157625DA
:101C70000A128A157B07831203135807F5007508AB
:101C8000840083130008F6007608F7002130F50081
:101C90007630F400F40B4A2EF50B4A2E000001308A
:101CA000F4007408FB07E62D0130F4007408FA070D
:101CB000B42DFC01831203135A087C020318722E00
:101CC000F0017C085907F4007408840083130008AD
:101CD0000A128A15B9220A128A150130F400740812
:101CE000FC075A2E02305706031D362FFA015608FC
:101CF0007A0203181C2F7A08F4007408F900FC011A
:101D0000831203135A087C020318A82EF001F00A6C
:101D10007C085507F40074088400831300080A1235
:101D20008A15B9220A128A15F00179088312031361
:101D30005507F40074088400831300080A128A15FA
:101D4000B9220A128A150130F4007408FC07802EAB
:101D5000FB01831203135A087B020318172F7B0819
:101D60005907F40074088400831300080A128A15C6
:101D70005E200A128A15003A031D092F83120313ED
:101D800054080319E22EF001F00A54080A128A15C9
:101D9000B9220A128A150830F6009D30F5000B3082
:101DA000F400F40BD12EF50BD12EF60BD12ED82E3C
:101DB000F0018312031354080A128A15B9220A1279
:101DC0008A15EF2E0830F6009D30F5000B30F40038
:101DD000F40BE82EF50BE82EF60BE82EEF2EF801AB
:101DE000F80A831203135608F4007408F0007B0805
:101DF0000A168A1576250A128A157A0783120313A2
:101E00005807F5007508840083130008F60076086B
:101E1000F7002130F5007630F400F40B0D2FF50BB0
:101E20000D2F00000130F4007408FB07A92E0130CB
:101E3000F4007408FA07772EFC0183120313560886
:101E40007C020318362FF001F00A7C085507F400D5
:101E500074088400831300080A128A15B9220A1232
:101E60008A150130F4007408FC071D2F0330570653
:101E7000031DF92FFA0156087A020318E02F7A0899
:101E8000F4007408F900FC01831203135A087C0261
:101E900003186C2FF0017C085507F40074088400C7
:101EA000831300080A128A15B9220A128A15F00152
:101EB000F00A7908831203135507F40074088400AC
:101EC000831300080A128A15B9220A128A150130F2
:101ED000F4007408FC07442FFB01831203135A0813
:101EE0007B020318DB2F7B085907F4007408840079
:101EF000831300080A128A155E200A128A15013A15
:101F0000031DCD2F8312031354080319A62FF001CC
:101F1000F00A54080A128A15B9220A128A150830E2
:101F2000F6009D30F5000B30F400F40B952FF50B07
:101F3000952FF60B952F9C2FF00183120313540855
:101F40000A128A15B9220A128A15B32F0830F60030
:101F50009D30F5000B30F400F40BAC2FF50BAC2FDB
:101F6000F60BAC2FB32FF801F80A831203135608AF
:101F7000F4007408F0007B080A168A1576250A1208
:101F80008A157A07831203135807F5007508840031
:101F900083130008F6007608F7002130F50076304C
:101FA000F400F40BD12FF50BD12F00000130F40019
:101FB0007408FB076D2F0130F4007408FA073B2FFB
:101FC000FC018312031356087C020318F92FF00159
:101FD0007C085507F40074088400831300080A1273
:101FE0008A15B9220A128A150130F4007408FC0718
:101FF000E12F78080319FE2F770808000030080049
:10200000FF1B0A2883137F1883170008840A03190B
:10201000FF0A08007F087F398A000408840A031930
:10202000FF0A8200003400340034173400340034D6
:102030000334003403340A341F340A34163413349E
:102040001A34093404340A340A3415341A34033483
:102050000034003400340E34113411340E340034A2
:1020600006340634003404340E3404340C341C3486
:10207000003404340434043410340034003418348C
:10208000043403341F3411341F3402341F34003439
:102090001D3415341734153415341F340F340834F7
:1020A0001E34173415341D341F3415341D340134D7
:1020B00001341F341F3415341F34173415341F34C2
:1020C00000340A34003400341A34003404340A343E
:1020D00011340A340A340A3411340A340434003412
:1020E000153407341F34153417341F3405341F34A6
:1020F0001F3415341B341F34113411341F34113480
:102100000E341F34153415341F34053401341F3494
:1021100011341D341F3404341F3411341F3411346E
:10212000083410340F341F3404341B341F3410347B
:1021300010341F3406341F341C3404341C341F3450
:1021400011341F341F34053407340E3419341E344F
:102150001F3405341B34173415341D3401341F3437
:1021600001341F3410341F340F3410340F341F3433
:102170000C341F341B3404341B34173414341F3410
:1021800019341534133400341F3411340334043437
:10219000183411341F34003406340134063410343A
:1021A00010341034013401340234183414341C3423
:1021B0001F3414341C341C34143414341C341434BC
:1021C0001F340C341A34143404341E3405341734D8
:1021D00015341E341F3404341C3400341D340034D0
:1021E000083410340D341F340C341A3400341F34C6
:1021F000003418340C3418341834043418341E34B1
:1022000012341E341F3405340734073405341F34A8
:102210001E340434043412341534093402341F34A7
:1022200002341C3410341C340C3410340C340C3490
:1022300018340C3414340834143416341834063476
:1022400004341C34103404340E34113400341F347C
:10225000003411340E3404340234043402341F3494
:102260001F341F3445344E345434453452342034F2
:102270004E344F3420344F344634203452344934B1
:102280004E3447345334003450345234453453348C
:10229000533420342334203446344F3452342034E1
:1022A0004234413443344B3400342034203420341D
:1022B000203420342034203420342034203420347E
:1022C0002034203420342034003453344134563404
:1022D000453420344634413449344C344534443454
:1022E00020342034203420340034573452344F34D6
:1022F0004E344734203449344E34503455345434F9
:10230000203420342034203400344D3441345834C7
:102310002D344E344F342D34453458344334453401
:102320004534443445344434003453344134563411
:1023300045342034533455344334453453345334C2
:10234000463455344C344C340034423452344534E1
:1023500041344B342034543449344D3445342034E2
:102360004B34493444345334003453344D344134C1
:10237000523454342D34423445344C344C340034CB
:102380004E344F3454342034563441344C34493470
:1023900044340034523449344E34473453343A349C
:1023A000003443344C344F345534443458340034BE
:1023B000543449344D3445343A340034553453346C
:1023C00049344E34473400344E344F343A340034B8
:1023D0000D340A340034F600F0018312031353085D
:1023E0000A128A111D200A168A11F00183120313A2
:1023F00053080A128A15B9220A168A1176080A1693
:102400008A1166220A168A11F001F00A8312031358
:1024100053080A128A111D200800FC01FD017D08E5
:10242000803AFF0081307F02031D182AF8307C02B9
:102430000318322AF20101300A168A11D8240A162A
:102440008A110130FC070318FD0A0030FD077D08E2
:10245000803AFF0081307F02031D302AF8307C0271
:10246000031C1A2AF80100300A168A15BC26080037
:10247000F70077080F39F4007408F8007808F400C2
:102480007408F6007708F039F4007408F70077084C
:10249000F40004300310F40CFF3E031D4A2A7408B4
:1024A000F5007508F80078080F39F4007408F80092
:1024B0000A30F4007408F00078080A168A157625A8
:1024C0007607F5007508F60076080800F400F501B7
:1024D0000830750203180800741C712AF001F00A14
:1024E000722AF0018312031353080A128A15B922C3
:1024F0000A168A11F001F00A8312031352080A1215
:102500008A15B9220A168A11F001831203135208A0
:102510000A128A15B9220A168A117408F2000310E9
:10252000720CF3007308F4000130F2007208F50732
:10253000682AF800F001F00A8312031353080A1204
:102540008A111D200A168A11F901F001F00A83127E
:1025500003135C080A128A15B9220A168A11780830
:102560000A168A11EB210A168A110A168A114F23BC
:102570000A168A11F7007708F900F0018312031395
:1025800053080A128A111D200A168A11F0018312BB
:1025900003135C080A128A15B92279080800213051
:1025A000F8007808F20000300A168A11D8240A16BA
:1025B0008A11B530F8007808F20000300A168A1146
:1025C000D8240A168A110430F8007808F200003086
:1025D0000A168A11D8240A168A111430F8007808CD
:1025E000F20000300A168A11D8240A168A11203007
:1025F000F8007808F20000300A168A11D8240A166A
:102600008A110C30F8007808F20000300A168A119E
:10261000D824080083120313A4007C080A168A1128
:10262000A2250A168A1183120313A3002308FC00B3
:1026300024080A168A11A2250A168A118312031386
:10264000A3002308A4007D080A168A11A2250A16F1
:102650008A1183120313A3002308FD007C08A30042
:102660002308F70082300A168A1594260A168A1162
:10267000831203132408A3002308F70084300A16EA
:102680008A1594260A168A117D0883120313A30063
:102690002308F70080300A168A1594260800F601F0
:1026A000F501F50A093075020318952B83120313FF
:1026B00053080A128A155E200A168A11F20072085F
:1026C000F4007408F20006300310F20DFF3E031D03
:1026D000642B0310720DF3007308F4007608F20007
:1026E0000310720CF3007308F60074087604F2000D
:1026F0007208F600F001F00A8312031352080A125E
:102700008A15B9220A168A11F0018312031352089E
:102710000A128A15B9220A168A110130F2007208CB
:10272000F50709307502031C562B76080800F700E0
:10273000F00177080A128A111D200A168A11F00189
:1027400072080A128A111D200A168A11F0017308F4
:102750000A128A111D200A168A11F00174080A1241
:102760008A111D200A168A11F00175080A128A11B1
:102770001D200A168A11F00175080A128A15B9225D
:102780000A168A11F001F00A75080A128A15B92290
:102790007708F600760883120313DE007208F6004D
:1027A0007608E0007308F6007608DF007408F6008B
:1027B0007608DD007508F6007608E1000800F601ED
:1027C000F31FE92BF209F309F20A0319F30AF601E0
:1027D000F60AF11FF02BF009F109F00A0319F10ACA
:1027E0007008710403191D2CF501F50AF11B042C66
:1027F00001300310F00DF10DFF3E031DF92B0130E8
:10280000F4007408F507F62B71087302031D0A2CF7
:1028100070087202031C122C7008F2027108031C6B
:10282000F303F30201300310F10CF00CFF3E031D23
:10283000132C0130F502031D042C76080319252CF6
:10284000F209F309F20A0319F30A7308F100720896
:10285000F000080083120313A0002008FC007C088D
:10286000D2007A08FC007C08D3007B08FC007C08BE
:10287000DC00F00152080A128A111D200A168A1182
:10288000F001831203135C080A128A111D200A1634
:102890008A11F0018312031352080A128A15B92211
:1028A0000A168A11F001831203135C080A128A15B2
:1028B000B9220A168A11F7018E300A168A15942653
:1028C0000A168A11A530FC007C08F70090300A1621
:1028D0008A1594260A168A1181300A168A119922BD
:1028E0000A168A11FC007C0883120313A100A11FA1
:1028F0000800F70180300A168A1594260800F601B0
:10290000F11F892CF009F109F00A0319F10AF60107
:10291000F60AF31F942CF209F309F20A0319F30AD9
:102920000130F4007408F606F701F801700871042C
:102930000319CB2CF501F50AF11BAA2C0130031069
:10294000F00DF10DFF3E031D9F2C0130F4007408C3
:10295000F5079C2C01300310F70DF80DFF3E031D09
:10296000AB2C71087302031DB72C70087202031C94
:10297000C02C7008F2027108031CF303F3027714F1
:1029800001300310F10CF00CFF3E031DC12C01308F
:10299000F502031DAA2C76080319D32CF709F809B0
:1029A000F70A0319F80A7808F1007708F000080020
:1029B000F5007208F3007308F6007508031DE22C99
:1029C000F001E42CF001F00A831203135F080A12ED
:1029D0008A15B9220A168A11F001831203135D08C1
:1029E0000A128A15B9220A168A11F70108307702ED
:1029F0000318322DF001831203135E080A128A15A0
:102A0000B9220A168A11F61F082DF001F00A092DC5
:102A1000F0018312031360080A128A15B9220A16FC
:102A20008A11F001F00A831203135E080A128A1554
:102A3000B9220A168A117608F3007307F4007408A5
:102A4000F600F001831203135E080A128A15B922F8
:102A50000A168A110130F3007308F707083077026D
:102A6000031CFA2CF001F00A831203135D080A120A
:102A70008A15B9220800831203132008A400210834
:102A8000A5002208A6002308A70004300310A40D07
:102A9000A50DA60DA70DFF3E031D462D2708F3002B
:102AA0002608F2002508F1002408F0000030A800F4
:102AB0002D30A9003130AA000130AB002008AC0055
:102AC0002108AD002208AE002308AF000430031037
:102AD000AC0DAD0DAE0DAF0DFF3E031D672DAC0966
:102AE000AD09AE09AF09AC0A0319AD0A0319AE0A64
:102AF0000319AF0A2C08A8072D0803182D0F812DE4
:102B0000822DA9072E0803182E0F872D882DAA07BE
:102B10002F0803182F0AAB072B08F7002A08F60026
:102B20002908F5002808F4000A128A150020700808
:102B300083160313990024309800903083120313F6
:102B40009800080083120313A0000A30F000003040
:102B5000F1002008F900FA017908F2007A08F30080
:102B60000A168A11DF230A168A117008FB007B08F7
:102B700083120313A10021080F39F9007908A1007D
:102B80000A30F0000030F1002008F900FA0179085D
:102B9000F2007A08F3000A168A117F240A168A11B5
:102BA0007008FB007B0883120313A0000A30F000BA
:102BB0000030F1002008F900FA017908F2007A08E3
:102BC000F3000A168A11DF230A168A117008FB0027
:102BD0007B0883120313A20022080F39F900790839
:102BE000A2002208F90003300310F90DFF3E031D77
:102BF000F42D0310790DFA007A08A2002208F039AA
:102C0000F9007908A20021082204F9007908A1003E
:102C10002108080083120313AD01F20101300A16E6
:102C20008A11D8240A168A11013083120313A500D1
:102C30002508E20722082D020318662E2308A500A6
:102C4000A601A509A609A50A0319A60A24082507AD
:102C5000F00026080318260AF1002208A700A801A0
:102C60002708F2002808F3000A168A154F260A16CC
:102C70008A11831203132D087007A900003003186E
:102C800001307107AA002908200784002A080318C8
:102C90002A0A2107FF000A168A1100200A168A1143
:102CA000AB002B08AC000130A5002508AD07620879
:102CB000A5002508FA002C08A6002608FB006508D8
:102CC0000A168A1512260A168A11142EF2010130EC
:102CD0000A168A11D824013083120313A50025088F
:102CE000E207080083120313A300A401A50123082F
:102CF000FD007D08A600831603136B080A168A15CB
:102D0000AA250A168A11FD007D0883120313A50067
:102D1000831603136B08FE3EEB006C080318013E9C
:102D2000FF3EEC008312031325080A168A11A22520
:102D30000A168A11FD007D0883120313A50083166D
:102D400003136B080A168A15AA250A168A11FD00B4
:102D50007D0883120313A40024080A168A11A225F1
:102D60000A168A11FD007D0883120313A4002408AB
:102D70000A168A155E250A168A11FD0083120313AE
:102D8000260884007D088313800024080A168A150B
:102D90003D250A168A11FD0083120313260A8400BA
:102DA0007D088313800025080A168A155E250A16F9
:102DB0008A11FD00831203132608033E84007D0858
:102DC0008313800025080A168A153D25FD0083120D
:102DD00003132608043E84007D0883138000080046
:102DE000232F203083120313B7003708F20000307E
:102DF0000A168A11D8240A168A110C30831203137A
:102E0000B7003708F20000300A168A11D8240A16D3
:102E10008A112D2F203083120313B7003708F200D8
:102E200000300A168A11D8240A168A110D3083122E
:102E30000313B7003708F20000300A168A11D824AD
:102E40000A168A112D2F831203133608003A03192C
:102E5000F12EFF3A03190A2F2D2F83120313330883
:102E6000FF3EB7003708F8003208FF3E0A168A1501
:102E7000BC260A168A11831203133508FF00340892
:102E800084000A168A1100200A168A11003A0319D2
:102E90000800831203132E08A0002F08A100300899
:102EA000B7003708A2003108B8003808A300350879
:102EB000FF00340884000A168A1100200A168A11BD
:102EC000B9003908A4000A168A110A260A168A11BE
:102ED000013083120313B4070318B50A0030B50795
:102EE0003B2F83120313A700A901AA012708A500FD
:102EF0002508A8002408A5002508AB00AC01053072
:102F00002C020318D32F02302C020318A32F2808F9
:102F1000840083130008D03ED13E84000A30A5000F
:102F20002508F00029080A168A1576250A168A113E
:102F30008313000783120313A6002608A90001309B
:102F4000A5002508A80702302C06031DAB2F013071
:102F5000A5002508A80703302C02031CCB2F280846
:102F6000840083130008D03ED13E84000A30A500BF
:102F70002508F0002A080A168A1576250A168A11ED
:102F80008313000783120313A6002608AA0001304A
:102F9000A5002508A8070130A5002508AC070530C5
:102FA0002C02031C832F193029020318DB2F3D301C
:102FB0002A02031CDD2F003008002908A50025087F
:102FC000FC002B080A168A15BF250A168A118312DF
:102FD00003132B08023EA5002508AB002A08A50014
:102FE0002508FC002B080A168A15BF250430831219
:102FF0000313A500250883160313ED07013008000D
:103A7A00F00070080F393038080064008001840AA9
:103A8A000406031900340406432D303430343A3422
:103A9A00303430343A34303430340034F900790870
:103AAA008038F8007808F20000300A168A11D82403
:103ABA000800F1007108F00004300310F00CFF3E1A
:103ACA00031D622D70083038080031343234333423
:103ADA003434353436343734383439342A3430349B
:103AEA002334F300F201731C7E2D7008F100710873
:103AFA00F2070310F00D0310F30C7308031D782D61
:103B0A00720808007E088A007F08820087250A1644
:103B1A008A158000840A04087D0603190034FF0A06
:103B2A000319FE0A8B2DF2008316031398167208E6
:103B3A008312031399002130F1007630F000F00B64
:103B4A00A42DF10BA42D00000800FB00FC017B084A
:103B5A00C1380A168A1199220A168A15FA007A08B1
:103B6A00FC007C080A168A113822FA007A08FC003E
:103B7A007C08080083120313A3007C080A168A1122
:103B8A00A2250A168A15FD007D08FC007C08FD00A6
:103B9A007D08F700831203132308C0380A168A1512
:103BAA0094260800FD007B0883120313A000200856
:103BBA00F2007A08A1002108F3007908A20022087D
:103BCA00F4007D08A3002308F5007C080A168A1170
:103BDA0097230A168A150A168A11CF2208000A168E
:103BEA008A110D220A168A15FF300A168A153026FE
:103BFA000A168A151A3083120313A2005E30A10036
:103C0A008630A000A00B072EA10B072EA20B072EB1
:103C1A0000000A168A110D220800FD007A08FC002D
:103C2A007C0883120313E2007D08FC007C08E5008F
:103C3A0055307A02031808007A080A168A1553259D
:103C4A000A168A157B08FC007C08F20001300A1665
:103C5A008A11D8240800F900FA01FB017B08803A8E
:103C6A00FF0081307F02031D3C2EF8307A020318D0
:103C7A0008007908F8007808F20001300A168A115B
:103C8A00D8240A168A150130FA070318FB0A0030ED
:103C9A00FB07332EF401F501701C592E7208F40744
:103CAA000318F50A7308F50701300310F20DF30D36
:103CBA00FF3E031D5A2E01300310F10CF00CFF3E9B
:103CCA00031D612E70087104031D512E7508F10041
:103CDA007408F0000800FD0081300A168A11992242
:103CEA000A168A15FC007B0884007C08831380006E
:103CFA0083300A168A1199220A168A15FC007A0854
:103D0A0084007C088313800085300A168A11992260
:103D1A00FC007D0884007C08831380000800F800FA
:103D2A00F001F00A831203135C080A128A15B922F9
:103D3A000A168A1578080A168A11EB210A168A15B4
:103D4A0077080A168A11EB210A168A15F0018312DE
:103D5A0003135C080A128A15B9220A168A15F00199
:103D6A008312031352080A128A15B9220800FB00AB
:103D7A007808F9007908F00007300A168A157625BE
:103D8A000A168A15FA007A08F8007808F9007908FC
:103D9A0083120313E2007B084038F9007908F20025
:103DAA0000300A168A11D8240A168A15780880382B
:103DBA00F9007908F20000300A168A11D82408009E
:103DCA00F600F401F5017508803AF3007208803AAA
:103DDA007302031DF22E7108740203180C2F700867
:103DEA0084000130F00783130008F300760884008A
:103DFA000130F607000873060319052F0030080082
:103E0A000130F4070318F50A0030F507E82E0130EF
:103E1A000800F60176087307840074080318740A08
:103E2A0083120313FF000A168A1100200A168A1544
:103E3A00003A031908007608730784007408031807
:103E4A00740A83120313FF000A168A1100200A1645
:103E5A008A150A168A1598250A168A150130F50058
:063E6A007508F6070F2F9A
:02400E00323F3F
:00000001FF
